:100000000C9472000C947E000C947E000C947E0084
:100010000C947E000C947E000C947E000C947E0068
:100020000C947E000C947E000C947E000C947E0058
:100030000C947E000C947E000C947E000C947E0048
:100040000C947E000C947E000C947E000C947E0038
:100050000C947E000C947E000C947E000C947E0028
:100060000C947E000C947E000C947E000C947E0018
:100070000C947E000C947E000C947E000C947E0008
:100080000C947E000C947E000C947E000C947E00F8
:100090000C947E000C947E000C947E000C947E00E8
:1000A0000C947E000C947E000C947E000C947E00D8
:1000B0000C947E000C947E000C947E000C947E00C8
:1000C0000C947E000C947E000C947E000C947E00B8
:1000D0000C947E000C947E000C947E000C947E00A8
:1000E0000C947E0011241FBECFEFD1E2DEBFCDBF46
:1000F00000E00CBF0E94AA000C94D0000C940000F9
:10010000CF93DF9300D01F921F92CDB7DEB78D83C0
:1001100082E993E09A83898312C01C821B8205C006
:100120008B819C8101969C838B832B813C8189816F
:100130009A8128173907A1F78D8181508D838D8190
:10014000882359F70F900F900F900F900F90DF9129
:10015000CF910895CF93DF93CDB7DEB78AE290E0D9
:100160002AE230E0F90120812860FC0120838BE243
:1001700090E02BE230E0F90120812860FC0120832F
:1001800082E30E9480008BE290E02BE230E0F901F4
:100190002081277FFC01208382E30E948000E7CF3B
:0401A000F894FFCF01
:00000001FF
